{
  "contractName": "EHR",
  "abi": [
    {
      "anonymous": false,
      "inputs": [
        {
          "indexed": false,
          "internalType": "address",
          "name": "clinic",
          "type": "address"
        },
        {
          "indexed": false,
          "internalType": "uint256",
          "name": "index",
          "type": "uint256"
        }
      ],
      "name": "PatientAddedEvent",
      "type": "event"
    },
    {
      "anonymous": false,
      "inputs": [
        {
          "indexed": false,
          "internalType": "address",
          "name": "clinic",
          "type": "address"
        },
        {
          "indexed": false,
          "internalType": "uint256",
          "name": "patient_index",
          "type": "uint256"
        },
        {
          "indexed": false,
          "internalType": "uint256",
          "name": "visit_index",
          "type": "uint256"
        }
      ],
      "name": "VisitAddedEvent",
      "type": "event"
    },
    {
      "constant": false,
      "inputs": [
        {
          "internalType": "bytes",
          "name": "patient",
          "type": "bytes"
        },
        {
          "internalType": "bytes32",
          "name": "hashed",
          "type": "bytes32"
        },
        {
          "internalType": "bytes",
          "name": "signature",
          "type": "bytes"
        }
      ],
      "name": "addPatient",
      "outputs": [
        {
          "internalType": "bool",
          "name": "",
          "type": "bool"
        }
      ],
      "payable": false,
      "stateMutability": "nonpayable",
      "type": "function"
    },
    {
      "constant": true,
      "inputs": [
        {
          "internalType": "address",
          "name": "clinic",
          "type": "address"
        },
        {
          "internalType": "uint256",
          "name": "indx",
          "type": "uint256"
        }
      ],
      "name": "getPatient",
      "outputs": [
        {
          "internalType": "bytes",
          "name": "",
          "type": "bytes"
        }
      ],
      "payable": false,
      "stateMutability": "view",
      "type": "function"
    },
    {
      "constant": true,
      "inputs": [
        {
          "internalType": "address",
          "name": "clinic",
          "type": "address"
        }
      ],
      "name": "NPatients",
      "outputs": [
        {
          "internalType": "uint256",
          "name": "",
          "type": "uint256"
        }
      ],
      "payable": false,
      "stateMutability": "view",
      "type": "function"
    },
    {
      "constant": false,
      "inputs": [
        {
          "internalType": "bytes",
          "name": "visit",
          "type": "bytes"
        },
        {
          "internalType": "uint256",
          "name": "patient_indx",
          "type": "uint256"
        },
        {
          "internalType": "bytes32",
          "name": "hashed",
          "type": "bytes32"
        },
        {
          "internalType": "bytes",
          "name": "signature",
          "type": "bytes"
        }
      ],
      "name": "addVisit",
      "outputs": [
        {
          "internalType": "bool",
          "name": "",
          "type": "bool"
        }
      ],
      "payable": false,
      "stateMutability": "nonpayable",
      "type": "function"
    },
    {
      "constant": true,
      "inputs": [
        {
          "internalType": "address",
          "name": "clinic",
          "type": "address"
        },
        {
          "internalType": "uint256",
          "name": "patient_indx",
          "type": "uint256"
        },
        {
          "internalType": "uint256",
          "name": "visit_indx",
          "type": "uint256"
        }
      ],
      "name": "getVisit",
      "outputs": [
        {
          "internalType": "bytes",
          "name": "",
          "type": "bytes"
        }
      ],
      "payable": false,
      "stateMutability": "view",
      "type": "function"
    },
    {
      "constant": true,
      "inputs": [
        {
          "internalType": "address",
          "name": "clinic",
          "type": "address"
        },
        {
          "internalType": "uint256",
          "name": "patient_indx",
          "type": "uint256"
        }
      ],
      "name": "NVisits",
      "outputs": [
        {
          "internalType": "uint256",
          "name": "",
          "type": "uint256"
        }
      ],
      "payable": false,
      "stateMutability": "view",
      "type": "function"
    }
  ],
  "bytecode": "0x608060405234801561001057600080fd5b50610db1806100206000396000f3fe608060405234801561001057600080fd5b50600436106100625760003560e01c806311bc47d314610067578063130d00c6146100c95780632b97621114610247578063682d0c511461029f578063c10e271b14610370578063d0ea5f62146104e4575b600080fd5b6100b36004803603604081101561007d57600080fd5b81019080803573ffffffffffffffffffffffffffffffffffffffff169060200190929190803590602001909291905050506105ab565b6040518082815260200191505060405180910390f35b61022d600480360360808110156100df57600080fd5b81019080803590602001906401000000008111156100fc57600080fd5b82018360208201111561010e57600080fd5b8035906020019184600183028401116401000000008311171561013057600080fd5b91908080601f016020809104026020016040519081016040528093929190818152602001838380828437600081840152601f19601f8201169050808301925050505050505091929192908035906020019092919080359060200190929190803590602001906401000000008111156101a757600080fd5b8201836020820111156101b957600080fd5b803590602001918460018302840111640100000000831117156101db57600080fd5b91908080601f016020809104026020016040519081016040528093929190818152602001838380828437600081840152601f19601f820116905080830192505050505050509192919290505050610609565b604051808215151515815260200191505060405180910390f35b6102896004803603602081101561025d57600080fd5b81019080803573ffffffffffffffffffffffffffffffffffffffff16906020019092919050505061076e565b6040518082815260200191505060405180910390f35b6102f5600480360360608110156102b557600080fd5b81019080803573ffffffffffffffffffffffffffffffffffffffff16906020019092919080359060200190929190803590602001909291905050506107b9565b6040518080602001828103825283818151815260200191508051906020019080838360005b8381101561033557808201518184015260208101905061031a565b50505050905090810190601f1680156103625780820380516001836020036101000a031916815260200191505b509250505060405180910390f35b6104ca6004803603606081101561038657600080fd5b81019080803590602001906401000000008111156103a357600080fd5b8201836020820111156103b557600080fd5b803590602001918460018302840111640100000000831117156103d757600080fd5b91908080601f016020809104026020016040519081016040528093929190818152602001838380828437600081840152601f19601f820116905080830192505050505050509192919290803590602001909291908035906020019064010000000081111561044457600080fd5b82018360208201111561045657600080fd5b8035906020019184600183028401116401000000008311171561047857600080fd5b91908080601f016020809104026020016040519081016040528093929190818152602001838380828437600081840152601f19601f820116905080830192505050505050509192919290505050610990565b604051808215151515815260200191505060405180910390f35b610530600480360360408110156104fa57600080fd5b81019080803573ffffffffffffffffffffffffffffffffffffffff16906020019092919080359060200190929190505050610ae2565b6040518080602001828103825283818151815260200191508051906020019080838360005b83811015610570578082015181840152602081019050610555565b50505050905090810190601f16801561059d5780820380516001836020036101000a031916815260200191505b509250505060405180910390f35b6000600160008473ffffffffffffffffffffffffffffffffffffffff1673ffffffffffffffffffffffffffffffffffffffff168152602001908152602001600020600083815260200190815260200160002080549050905092915050565b60008060008061061885610c94565b809350819450829550505050600060018785858560405160008152602001604052604051808581526020018460ff1660ff1681526020018381526020018281526020019450505050506020604051602081039080840390855afa158015610683573d6000803e3d6000fd5b5050506020604051035190508073ffffffffffffffffffffffffffffffffffffffff163373ffffffffffffffffffffffffffffffffffffffff16141561075d57600160003373ffffffffffffffffffffffffffffffffffffffff1673ffffffffffffffffffffffffffffffffffffffff168152602001908152602001600020600089815260200190815260200160002089908060018154018082558091505090600182039060005260206000200160009091929091909150908051906020019061074e929190610cd7565b50506001945050505050610766565b60009450505050505b949350505050565b60008060008373ffffffffffffffffffffffffffffffffffffffff1673ffffffffffffffffffffffffffffffffffffffff168152602001908152602001600020805490509050919050565b6060600160008573ffffffffffffffffffffffffffffffffffffffff1673ffffffffffffffffffffffffffffffffffffffff16815260200190815260200160002060008481526020019081526020016000208054905082101561091b57600160008573ffffffffffffffffffffffffffffffffffffffff1673ffffffffffffffffffffffffffffffffffffffff1681526020019081526020016000206000848152602001908152602001600020828154811061087157fe5b906000526020600020018054600181600116156101000203166002900480601f01602080910402602001604051908101604052809291908181526020018280546001816001161561010002031660029004801561090f5780601f106108e45761010080835404028352916020019161090f565b820191906000526020600020905b8154815290600101906020018083116108f257829003601f168201915b50505050509050610989565b6040517f08c379a00000000000000000000000000000000000000000000000000000000081526004018080602001828103825260098152602001807f4e6f7420666f756e64000000000000000000000000000000000000000000000081525060200191505060405180910390fd5b9392505050565b60008060008061099f85610c94565b809350819450829550505050600060018785858560405160008152602001604052604051808581526020018460ff1660ff1681526020018381526020018281526020019450505050506020604051602081039080840390855afa158015610a0a573d6000803e3d6000fd5b5050506020604051035190508073ffffffffffffffffffffffffffffffffffffffff163373ffffffffffffffffffffffffffffffffffffffff161415610ad2576000803373ffffffffffffffffffffffffffffffffffffffff1673ffffffffffffffffffffffffffffffffffffffff168152602001908152602001600020889080600181540180825580915050906001820390600052602060002001600090919290919091509080519060200190610ac3929190610cd7565b50506001945050505050610adb565b60009450505050505b9392505050565b60606000808473ffffffffffffffffffffffffffffffffffffffff1673ffffffffffffffffffffffffffffffffffffffff16815260200190815260200160002080549050821015610c20576000808473ffffffffffffffffffffffffffffffffffffffff1673ffffffffffffffffffffffffffffffffffffffff1681526020019081526020016000208281548110610b7657fe5b906000526020600020018054600181600116156101000203166002900480601f016020809104026020016040519081016040528092919081815260200182805460018160011615610100020316600290048015610c145780601f10610be957610100808354040283529160200191610c14565b820191906000526020600020905b815481529060010190602001808311610bf757829003601f168201915b50505050509050610c8e565b6040517f08c379a00000000000000000000000000000000000000000000000000000000081526004018080602001828103825260098152602001807f4e6f7420666f756e64000000000000000000000000000000000000000000000081525060200191505060405180910390fd5b92915050565b60008060006041845114610ca757600080fd5b60008060006020870151925060408701519150606087015160001a90508083839550955095505050509193909250565b828054600181600116156101000203166002900490600052602060002090601f016020900481019282601f10610d1857805160ff1916838001178555610d46565b82800160010185558215610d46579182015b82811115610d45578251825591602001919060010190610d2a565b5b509050610d539190610d57565b5090565b610d7991905b80821115610d75576000816000905550600101610d5d565b5090565b9056fea265627a7a723158201ca2eef3ee06aed3fead2149829222ffa81d3f796df7b4405da55827363582f164736f6c63430005100032",
  "source": "pragma solidity  >=0.5.16;\r\n\r\ncontract EHR{\r\n    mapping(address => bytes[]) private patients; // patient storage\r\n    mapping(address => mapping(uint => bytes[])) private visits; // visit storage\r\n\r\n    /**\r\n    Description: check the validity of the signature and store a patient in my clinic's storage\r\n    Params:\r\n        patient   -> encrypted patient (not signed)\r\n        hashed    -> the hash of patient (keccak256)\r\n        signatrue -> signature signed by the clinic\r\n    Returns: Boolean indicating insertion success\r\n    */\r\n    function addPatient (bytes memory patient, bytes32 hashed, bytes memory signature) public returns(bool){ \r\n        uint8 v;\r\n        bytes32 r;\r\n        bytes32 s;\r\n        (v, r, s) = splitSignature(signature);\r\n      \r\n        address signer = ecrecover(hashed, v, r, s);\r\n\r\n        if(msg.sender == signer){\r\n            patients[msg.sender].push(patient);\r\n            return true;\r\n        }\r\n\r\n        return false;\r\n    }\r\n\r\n    /**\r\n    Description: getter method for patients\r\n    Params:\r\n        clinic -> address of the clinic\r\n        indx   -> id of the wanted patient inside clinic\r\n    Returns: encrypted patient as an array of hexadecimal bytes\r\n    */\r\n    function getPatient (address clinic, uint indx) public view returns(bytes memory){ \r\n        if(indx < patients[clinic].length){\r\n            return patients[clinic][indx];\r\n        }\r\n        else{\r\n            revert('Not found');\r\n        }\r\n    }\r\n\r\n    /**\r\n    Description: a getter for the number of patients in a clinic's storage\r\n    Params:\r\n        clinic -> address of the clinic\r\n    Returns: A BN object that needs conversion to number\r\n    */\r\n    function NPatients(address clinic) public view returns(uint){\r\n        return patients[clinic].length;\r\n    }\r\n\r\n\r\n    /**\r\n    Description: check the validity of the signature and store a visit for a patient \r\n                 in a specific clinic\r\n    Params:\r\n        visit        -> encrypted visit (not signed)\r\n        patient_indx -> id of the patient corresponding to the visit\r\n        hashed       -> the hash of visit (keccak256)\r\n        signatrue    -> signature signed by the clinic\r\n    Returns: Boolean indicating insertion success\r\n    */\r\n    function addVisit (bytes memory visit, uint patient_indx, bytes32 hashed, bytes memory signature) public returns(bool){ \r\n        uint8 v;\r\n        bytes32 r;\r\n        bytes32 s;\r\n        (v, r, s) = splitSignature(signature);\r\n      \r\n        address signer = ecrecover(hashed, v, r, s);\r\n\r\n        if(msg.sender == signer){\r\n            visits[msg.sender][patient_indx].push(visit);\r\n            return true;\r\n        }\r\n\r\n        return false;\r\n    }\r\n\r\n    /**\r\n    Description: getter method for visits\r\n    Params:\r\n        clinic       -> address of the clinic\r\n        patient_indx -> id of the wanted patient corresponding to the visit\r\n        visit_indx   -> id of the visit\r\n    Returns: encrypted patient as an array of hexadecimal bytes\r\n    */\r\n    function getVisit (address clinic, uint patient_indx, uint visit_indx) public view returns(bytes memory){ \r\n        if(visit_indx < visits[clinic][patient_indx].length){\r\n            return visits[clinic][patient_indx][visit_indx];\r\n        }\r\n        else{\r\n            revert('Not found');\r\n        }\r\n    }\r\n\r\n    /**\r\n    Description: a getter for the number of visits for a patient inside a clinic's storage\r\n    Params:\r\n        clinic       -> address of the clinic\r\n        patient_indx -> id of the patient\r\n    Returns: A BN object that needs conversion to number\r\n    */\r\n    function NVisits(address clinic, uint patient_indx) public view returns(uint){\r\n        return visits[clinic][patient_indx].length;\r\n    }\r\n    //================================EVENTS======================================\r\n    /* Events help you with updating the frontend whenever\r\n     * changes happen here in the backend \r\n     */\r\n\r\n    /**\r\n    Description: Triggers when a patient is added.\r\n    Returns: address of the clinic inserting the patient and the new patient id\r\n    */\r\n    event PatientAddedEvent (address clinic, uint index);\r\n\r\n\r\n    /**\r\n    Description: Triggers when a visit is added.\r\n    Returns: address of the clinic inserting the visit, the patient id, and the visit id;\r\n    */\r\n    event VisitAddedEvent (address clinic, uint patient_index, uint visit_index);\r\n\r\n\r\n    //================================HELPERS======================================\r\n\r\n    /**\r\n    Description: segments the signature to its constituents\r\n    Params:\r\n        sig -> the signature to be segmented\r\n    Returns: values of v, r, s in order to verify the signature\r\n    */\r\n    function splitSignature(bytes memory sig) private pure returns (uint8, bytes32, bytes32) {\r\n        require(sig.length == 65);\r\n       \r\n        bytes32 r;\r\n        bytes32 s;\r\n        uint8 v;\r\n        assembly {\r\n            // first 32 bytes, after the length prefix\r\n            r := mload(add(sig, 32))\r\n            // second 32 bytes\r\n            s := mload(add(sig, 64))\r\n            // final byte (first byte of the next 32 bytes)\r\n            v := byte(0, mload(add(sig, 96)))\r\n        }\r\n        return (v, r, s);\r\n    }\r\n}\r\n",
  "sourcePath": "C:\\users\\aearly\\Desktop\\Blockchain\\contracts\\contracts\\EHR.sol",
  "compiler": {
    "name": "solc",
    "version": "0.5.16+commit.9c3226ce.Emscripten.clang"
  },
  "schemaVersion": "3.4.7",
  "updatedAt": "2022-05-29T19:14:41.251Z",
  "networkType": "ethereum",
  "devdoc": {
    "methods": {}
  },
  "userdoc": {
    "methods": {
      "NPatients(address)": {
        "notice": "Description: a getter for the number of patients in a clinic's storage Params: clinic -> address of the clinic Returns: A BN object that needs conversion to number"
      },
      "NVisits(address,uint256)": {
        "notice": "Description: a getter for the number of visits for a patient inside a clinic's storage Params: clinic       -> address of the clinic patient_indx -> id of the patient Returns: A BN object that needs conversion to number"
      },
      "addPatient(bytes,bytes32,bytes)": {
        "notice": "Description: check the validity of the signature and store a patient in my clinic's storage Params: patient   -> encrypted patient (not signed) hashed    -> the hash of patient (keccak256) signatrue -> signature signed by the clinic Returns: Boolean indicating insertion success"
      },
      "addVisit(bytes,uint256,bytes32,bytes)": {
        "notice": "Description: check the validity of the signature and store a visit for a patient  in a specific clinic Params: visit        -> encrypted visit (not signed) patient_indx -> id of the patient corresponding to the visit hashed       -> the hash of visit (keccak256) signatrue    -> signature signed by the clinic Returns: Boolean indicating insertion success"
      },
      "getPatient(address,uint256)": {
        "notice": "Description: getter method for patients Params: clinic -> address of the clinic indx   -> id of the wanted patient inside clinic Returns: encrypted patient as an array of hexadecimal bytes"
      },
      "getVisit(address,uint256,uint256)": {
        "notice": "Description: getter method for visits Params: clinic       -> address of the clinic patient_indx -> id of the wanted patient corresponding to the visit visit_indx   -> id of the visit Returns: encrypted patient as an array of hexadecimal bytes"
      }
    }
  }
}